{
  "_format": "hh-sol-artifact-1",
  "contractName": "ManualToken",
  "sourceName": "contracts/ManualToken.sol",
  "abi": [
    {
      "inputs": [
        {
          "internalType": "uint256",
          "name": "initialSupply",
          "type": "uint256"
        },
        {
          "internalType": "string",
          "name": "tokenName",
          "type": "string"
        },
        {
          "internalType": "string",
          "name": "tokenSymbol",
          "type": "string"
        }
      ],
      "stateMutability": "nonpayable",
      "type": "constructor"
    },
    {
      "anonymous": false,
      "inputs": [
        {
          "indexed": true,
          "internalType": "address",
          "name": "_owner",
          "type": "address"
        },
        {
          "indexed": true,
          "internalType": "address",
          "name": "_spender",
          "type": "address"
        },
        {
          "indexed": false,
          "internalType": "uint256",
          "name": "_value",
          "type": "uint256"
        }
      ],
      "name": "Approval",
      "type": "event"
    },
    {
      "anonymous": false,
      "inputs": [
        {
          "indexed": true,
          "internalType": "address",
          "name": "from",
          "type": "address"
        },
        {
          "indexed": false,
          "internalType": "uint256",
          "name": "value",
          "type": "uint256"
        }
      ],
      "name": "Burn",
      "type": "event"
    },
    {
      "anonymous": false,
      "inputs": [
        {
          "indexed": true,
          "internalType": "address",
          "name": "from",
          "type": "address"
        },
        {
          "indexed": true,
          "internalType": "address",
          "name": "to",
          "type": "address"
        },
        {
          "indexed": false,
          "internalType": "uint256",
          "name": "value",
          "type": "uint256"
        }
      ],
      "name": "Transfer",
      "type": "event"
    },
    {
      "inputs": [],
      "name": "DECIMALS",
      "outputs": [
        {
          "internalType": "uint8",
          "name": "",
          "type": "uint8"
        }
      ],
      "stateMutability": "view",
      "type": "function"
    },
    {
      "inputs": [
        {
          "internalType": "address",
          "name": "",
          "type": "address"
        },
        {
          "internalType": "address",
          "name": "",
          "type": "address"
        }
      ],
      "name": "allowance",
      "outputs": [
        {
          "internalType": "uint256",
          "name": "",
          "type": "uint256"
        }
      ],
      "stateMutability": "view",
      "type": "function"
    },
    {
      "inputs": [
        {
          "internalType": "address",
          "name": "_spender",
          "type": "address"
        },
        {
          "internalType": "uint256",
          "name": "_value",
          "type": "uint256"
        },
        {
          "internalType": "bytes",
          "name": "_extraData",
          "type": "bytes"
        }
      ],
      "name": "approvaAndCall",
      "outputs": [
        {
          "internalType": "bool",
          "name": "success",
          "type": "bool"
        }
      ],
      "stateMutability": "nonpayable",
      "type": "function"
    },
    {
      "inputs": [
        {
          "internalType": "address",
          "name": "_spender",
          "type": "address"
        },
        {
          "internalType": "uint256",
          "name": "_value",
          "type": "uint256"
        }
      ],
      "name": "approve",
      "outputs": [
        {
          "internalType": "bool",
          "name": "success",
          "type": "bool"
        }
      ],
      "stateMutability": "nonpayable",
      "type": "function"
    },
    {
      "inputs": [
        {
          "internalType": "address",
          "name": "",
          "type": "address"
        }
      ],
      "name": "balanceOf",
      "outputs": [
        {
          "internalType": "uint256",
          "name": "",
          "type": "uint256"
        }
      ],
      "stateMutability": "view",
      "type": "function"
    },
    {
      "inputs": [
        {
          "internalType": "uint256",
          "name": "_value",
          "type": "uint256"
        }
      ],
      "name": "burn",
      "outputs": [
        {
          "internalType": "bool",
          "name": "success",
          "type": "bool"
        }
      ],
      "stateMutability": "nonpayable",
      "type": "function"
    },
    {
      "inputs": [
        {
          "internalType": "address",
          "name": "_from",
          "type": "address"
        },
        {
          "internalType": "uint256",
          "name": "_value",
          "type": "uint256"
        }
      ],
      "name": "burnFrom",
      "outputs": [
        {
          "internalType": "bool",
          "name": "success",
          "type": "bool"
        }
      ],
      "stateMutability": "nonpayable",
      "type": "function"
    },
    {
      "inputs": [],
      "name": "name",
      "outputs": [
        {
          "internalType": "string",
          "name": "",
          "type": "string"
        }
      ],
      "stateMutability": "view",
      "type": "function"
    },
    {
      "inputs": [],
      "name": "symbol",
      "outputs": [
        {
          "internalType": "string",
          "name": "",
          "type": "string"
        }
      ],
      "stateMutability": "view",
      "type": "function"
    },
    {
      "inputs": [],
      "name": "totalSupply",
      "outputs": [
        {
          "internalType": "uint256",
          "name": "",
          "type": "uint256"
        }
      ],
      "stateMutability": "view",
      "type": "function"
    },
    {
      "inputs": [
        {
          "internalType": "address",
          "name": "_to",
          "type": "address"
        },
        {
          "internalType": "uint256",
          "name": "_value",
          "type": "uint256"
        }
      ],
      "name": "transfer",
      "outputs": [
        {
          "internalType": "bool",
          "name": "success",
          "type": "bool"
        }
      ],
      "stateMutability": "nonpayable",
      "type": "function"
    },
    {
      "inputs": [
        {
          "internalType": "address",
          "name": "_from",
          "type": "address"
        },
        {
          "internalType": "address",
          "name": "_to",
          "type": "address"
        },
        {
          "internalType": "uint256",
          "name": "_value",
          "type": "uint256"
        }
      ],
      "name": "transferFrom",
      "outputs": [
        {
          "internalType": "bool",
          "name": "success",
          "type": "bool"
        }
      ],
      "stateMutability": "nonpayable",
      "type": "function"
    }
  ],
  "bytecode": "0x60806040523480156200001157600080fd5b5060405162001ae238038062001ae2833981810160405281019062000037919062000223565b601260ff16600a6200004a919062000377565b83620000579190620004b4565b600281905550600254600360003373ffffffffffffffffffffffffffffffffffffffff1673ffffffffffffffffffffffffffffffffffffffff168152602001908152602001600020819055508160009080519060200190620000bb929190620000de565b508060019080519060200190620000d4929190620000de565b505050506200069a565b828054620000ec9062000555565b90600052602060002090601f0160209004810192826200011057600085556200015c565b82601f106200012b57805160ff19168380011785556200015c565b828001600101855582156200015c579182015b828111156200015b5782518255916020019190600101906200013e565b5b5090506200016b91906200016f565b5090565b5b808211156200018a57600081600090555060010162000170565b5090565b6000620001a56200019f84620002e6565b620002bd565b905082815260208101848484011115620001c457620001c362000653565b5b620001d18482856200051f565b509392505050565b600082601f830112620001f157620001f06200064e565b5b8151620002038482602086016200018e565b91505092915050565b6000815190506200021d8162000680565b92915050565b6000806000606084860312156200023f576200023e6200065d565b5b60006200024f868287016200020c565b935050602084015167ffffffffffffffff81111562000273576200027262000658565b5b6200028186828701620001d9565b925050604084015167ffffffffffffffff811115620002a557620002a462000658565b5b620002b386828701620001d9565b9150509250925092565b6000620002c9620002dc565b9050620002d782826200058b565b919050565b6000604051905090565b600067ffffffffffffffff8211156200030457620003036200061f565b5b6200030f8262000662565b9050602081019050919050565b6000808291508390505b60018511156200036e57808604811115620003465762000345620005c1565b5b6001851615620003565780820291505b8081029050620003668562000673565b945062000326565b94509492505050565b6000620003848262000515565b9150620003918362000515565b9250620003c07fffffffffffffffffffffffffffffffffffffffffffffffffffffffffffffffff8484620003c8565b905092915050565b600082620003da5760019050620004ad565b81620003ea5760009050620004ad565b81600181146200040357600281146200040e5762000444565b6001915050620004ad565b60ff841115620004235762000422620005c1565b5b8360020a9150848211156200043d576200043c620005c1565b5b50620004ad565b5060208310610133831016604e8410600b84101617156200047e5782820a905083811115620004785762000477620005c1565b5b620004ad565b6200048d84848460016200031c565b92509050818404811115620004a757620004a6620005c1565b5b81810290505b9392505050565b6000620004c18262000515565b9150620004ce8362000515565b9250817fffffffffffffffffffffffffffffffffffffffffffffffffffffffffffffffff04831182151516156200050a5762000509620005c1565b5b828202905092915050565b6000819050919050565b60005b838110156200053f57808201518184015260208101905062000522565b838111156200054f576000848401525b50505050565b600060028204905060018216806200056e57607f821691505b60208210811415620005855762000584620005f0565b5b50919050565b620005968262000662565b810181811067ffffffffffffffff82111715620005b857620005b76200061f565b5b80604052505050565b7f4e487b7100000000000000000000000000000000000000000000000000000000600052601160045260246000fd5b7f4e487b7100000000000000000000000000000000000000000000000000000000600052602260045260246000fd5b7f4e487b7100000000000000000000000000000000000000000000000000000000600052604160045260246000fd5b600080fd5b600080fd5b600080fd5b600080fd5b6000601f19601f8301169050919050565b60008160011c9050919050565b6200068b8162000515565b81146200069757600080fd5b50565b61143880620006aa6000396000f3fe608060405234801561001057600080fd5b50600436106100b45760003560e01c80636e8c39ab116100715780636e8c39ab146101a357806370a08231146101d357806379cc67901461020357806395d89b4114610233578063a9059cbb14610251578063dd62ed3e14610281576100b4565b806306fdde03146100b9578063095ea7b3146100d757806318160ddd1461010757806323b872dd146101255780632e0f26251461015557806342966c6814610173575b600080fd5b6100c16102b1565b6040516100ce9190611089565b60405180910390f35b6100f160048036038101906100ec9190610e98565b61033f565b6040516100fe919061106e565b60405180910390f35b61010f610431565b60405161011c91906110ab565b60405180910390f35b61013f600480360381019061013a9190610e45565b610437565b60405161014c919061106e565b60405180910390f35b61015d61056b565b60405161016a91906110c6565b60405180910390f35b61018d60048036038101906101889190610f47565b610570565b60405161019a919061106e565b60405180910390f35b6101bd60048036038101906101b89190610ed8565b610684565b6040516101ca919061106e565b60405180910390f35b6101ed60048036038101906101e89190610dd8565b61071d565b6040516101fa91906110ab565b60405180910390f35b61021d60048036038101906102189190610e98565b610735565b60405161022a919061106e565b60405180910390f35b61023b61091a565b6040516102489190611089565b60405180910390f35b61026b60048036038101906102669190610e98565b6109a8565b604051610278919061106e565b60405180910390f35b61029b60048036038101906102969190610e05565b6109bf565b6040516102a891906110ab565b60405180910390f35b600080546102be90611290565b80601f01602080910402602001604051908101604052809291908181526020018280546102ea90611290565b80156103375780601f1061030c57610100808354040283529160200191610337565b820191906000526020600020905b81548152906001019060200180831161031a57829003601f168201915b505050505081565b600081600460003373ffffffffffffffffffffffffffffffffffffffff1673ffffffffffffffffffffffffffffffffffffffff16815260200190815260200160002060008573ffffffffffffffffffffffffffffffffffffffff1673ffffffffffffffffffffffffffffffffffffffff168152602001908152602001600020819055508273ffffffffffffffffffffffffffffffffffffffff163373ffffffffffffffffffffffffffffffffffffffff167f8c5be1e5ebec7d5bd14f71427d1e84f3dd0314c0f7b2291e5b200ac8c7c3b9258460405161041f91906110ab565b60405180910390a36001905092915050565b60025481565b6000600460008573ffffffffffffffffffffffffffffffffffffffff1673ffffffffffffffffffffffffffffffffffffffff16815260200190815260200160002060003373ffffffffffffffffffffffffffffffffffffffff1673ffffffffffffffffffffffffffffffffffffffff168152602001908152602001600020548211156104c257600080fd5b81600460008673ffffffffffffffffffffffffffffffffffffffff1673ffffffffffffffffffffffffffffffffffffffff16815260200190815260200160002060003373ffffffffffffffffffffffffffffffffffffffff1673ffffffffffffffffffffffffffffffffffffffff168152602001908152602001600020600082825461054e91906111c5565b925050819055506105608484846109e4565b600190509392505050565b601281565b600081600360003373ffffffffffffffffffffffffffffffffffffffff1673ffffffffffffffffffffffffffffffffffffffff1681526020019081526020016000205410156105be57600080fd5b81600360003373ffffffffffffffffffffffffffffffffffffffff1673ffffffffffffffffffffffffffffffffffffffff168152602001908152602001600020600082825461060d91906111c5565b92505081905550816002600082825461062691906111c5565b925050819055503373ffffffffffffffffffffffffffffffffffffffff167fcc16f5dbb4873280815c1ee09dbd06736cffcc184412cf7a71a0fdb75d397ca58360405161067391906110ab565b60405180910390a260019050919050565b600080849050610694858561033f565b15610714578073ffffffffffffffffffffffffffffffffffffffff16638f4ffcb1338630876040518563ffffffff1660e01b81526004016106d89493929190611022565b600060405180830381600087803b1580156106f257600080fd5b505af1158015610706573d6000803e3d6000fd5b505050506001915050610716565b505b9392505050565b60036020528060005260406000206000915090505481565b6000600460008473ffffffffffffffffffffffffffffffffffffffff1673ffffffffffffffffffffffffffffffffffffffff16815260200190815260200160002060003373ffffffffffffffffffffffffffffffffffffffff1673ffffffffffffffffffffffffffffffffffffffff168152602001908152602001600020548211156107c057600080fd5b81600360008573ffffffffffffffffffffffffffffffffffffffff1673ffffffffffffffffffffffffffffffffffffffff168152602001908152602001600020600082825461080f91906111c5565b9250508190555081600460008573ffffffffffffffffffffffffffffffffffffffff1673ffffffffffffffffffffffffffffffffffffffff16815260200190815260200160002060003373ffffffffffffffffffffffffffffffffffffffff1673ffffffffffffffffffffffffffffffffffffffff16815260200190815260200160002060008282546108a291906111c5565b9250508190555081600260008282546108bb91906111c5565b925050819055508273ffffffffffffffffffffffffffffffffffffffff167fcc16f5dbb4873280815c1ee09dbd06736cffcc184412cf7a71a0fdb75d397ca58360405161090891906110ab565b60405180910390a26001905092915050565b6001805461092790611290565b80601f016020809104026020016040519081016040528092919081815260200182805461095390611290565b80156109a05780601f10610975576101008083540402835291602001916109a0565b820191906000526020600020905b81548152906001019060200180831161098357829003601f168201915b505050505081565b60006109b53384846109e4565b6001905092915050565b6004602052816000526040600020602052806000526040600020600091509150505481565b600073ffffffffffffffffffffffffffffffffffffffff168273ffffffffffffffffffffffffffffffffffffffff161415610a1e57600080fd5b80600360008573ffffffffffffffffffffffffffffffffffffffff1673ffffffffffffffffffffffffffffffffffffffff168152602001908152602001600020541015610a6a57600080fd5b600360008373ffffffffffffffffffffffffffffffffffffffff1673ffffffffffffffffffffffffffffffffffffffff1681526020019081526020016000205481600360008573ffffffffffffffffffffffffffffffffffffffff1673ffffffffffffffffffffffffffffffffffffffff16815260200190815260200160002054610af5919061116f565b1015610b0057600080fd5b6000600360008473ffffffffffffffffffffffffffffffffffffffff1673ffffffffffffffffffffffffffffffffffffffff16815260200190815260200160002054600360008673ffffffffffffffffffffffffffffffffffffffff1673ffffffffffffffffffffffffffffffffffffffff16815260200190815260200160002054610b8c919061116f565b905081600360008673ffffffffffffffffffffffffffffffffffffffff1673ffffffffffffffffffffffffffffffffffffffff1681526020019081526020016000206000828254610bdd91906111c5565b9250508190555081600360008573ffffffffffffffffffffffffffffffffffffffff1673ffffffffffffffffffffffffffffffffffffffff1681526020019081526020016000206000828254610c33919061116f565b925050819055508273ffffffffffffffffffffffffffffffffffffffff168473ffffffffffffffffffffffffffffffffffffffff167fddf252ad1be2c89b69c2b068fc378daa952ba7f163c4a11628f55a4df523b3ef84604051610c9791906110ab565b60405180910390a380600360008573ffffffffffffffffffffffffffffffffffffffff1673ffffffffffffffffffffffffffffffffffffffff16815260200190815260200160002054600360008773ffffffffffffffffffffffffffffffffffffffff1673ffffffffffffffffffffffffffffffffffffffff16815260200190815260200160002054610d2a919061116f565b14610d3857610d376112f3565b5b50505050565b6000610d51610d4c84611106565b6110e1565b905082815260208101848484011115610d6d57610d6c6113b4565b5b610d7884828561124e565b509392505050565b600081359050610d8f816113d4565b92915050565b600082601f830112610daa57610da96113af565b5b8135610dba848260208601610d3e565b91505092915050565b600081359050610dd2816113eb565b92915050565b600060208284031215610dee57610ded6113be565b5b6000610dfc84828501610d80565b91505092915050565b60008060408385031215610e1c57610e1b6113be565b5b6000610e2a85828601610d80565b9250506020610e3b85828601610d80565b9150509250929050565b600080600060608486031215610e5e57610e5d6113be565b5b6000610e6c86828701610d80565b9350506020610e7d86828701610d80565b9250506040610e8e86828701610dc3565b9150509250925092565b60008060408385031215610eaf57610eae6113be565b5b6000610ebd85828601610d80565b9250506020610ece85828601610dc3565b9150509250929050565b600080600060608486031215610ef157610ef06113be565b5b6000610eff86828701610d80565b9350506020610f1086828701610dc3565b925050604084013567ffffffffffffffff811115610f3157610f306113b9565b5b610f3d86828701610d95565b9150509250925092565b600060208284031215610f5d57610f5c6113be565b5b6000610f6b84828501610dc3565b91505092915050565b610f7d816111f9565b82525050565b610f8c8161120b565b82525050565b6000610f9d82611137565b610fa7818561114d565b9350610fb781856020860161125d565b610fc0816113c3565b840191505092915050565b6000610fd682611142565b610fe0818561115e565b9350610ff081856020860161125d565b610ff9816113c3565b840191505092915050565b61100d81611237565b82525050565b61101c81611241565b82525050565b60006080820190506110376000830187610f74565b6110446020830186611004565b6110516040830185610f74565b81810360608301526110638184610f92565b905095945050505050565b60006020820190506110836000830184610f83565b92915050565b600060208201905081810360008301526110a38184610fcb565b905092915050565b60006020820190506110c06000830184611004565b92915050565b60006020820190506110db6000830184611013565b92915050565b60006110eb6110fc565b90506110f782826112c2565b919050565b6000604051905090565b600067ffffffffffffffff82111561112157611120611380565b5b61112a826113c3565b9050602081019050919050565b600081519050919050565b600081519050919050565b600082825260208201905092915050565b600082825260208201905092915050565b600061117a82611237565b915061118583611237565b9250827fffffffffffffffffffffffffffffffffffffffffffffffffffffffffffffffff038211156111ba576111b9611322565b5b828201905092915050565b60006111d082611237565b91506111db83611237565b9250828210156111ee576111ed611322565b5b828203905092915050565b600061120482611217565b9050919050565b60008115159050919050565b600073ffffffffffffffffffffffffffffffffffffffff82169050919050565b6000819050919050565b600060ff82169050919050565b82818337600083830152505050565b60005b8381101561127b578082015181840152602081019050611260565b8381111561128a576000848401525b50505050565b600060028204905060018216806112a857607f821691505b602082108114156112bc576112bb611351565b5b50919050565b6112cb826113c3565b810181811067ffffffffffffffff821117156112ea576112e9611380565b5b80604052505050565b7f4e487b7100000000000000000000000000000000000000000000000000000000600052600160045260246000fd5b7f4e487b7100000000000000000000000000000000000000000000000000000000600052601160045260246000fd5b7f4e487b7100000000000000000000000000000000000000000000000000000000600052602260045260246000fd5b7f4e487b7100000000000000000000000000000000000000000000000000000000600052604160045260246000fd5b600080fd5b600080fd5b600080fd5b600080fd5b6000601f19601f8301169050919050565b6113dd816111f9565b81146113e857600080fd5b50565b6113f481611237565b81146113ff57600080fd5b5056fea2646970667358221220ba02e068975c02ccacc13300b45fc7c688e331c08ef58336eac93c7cfc8a92c564736f6c63430008070033",
  "linkReferences": {},
  "deployedLinkReferences": {}
}